:100000000C94AC030C94F3030C94F3030C94F303DF
:100010000C94F3030C94F3030C94F3030C94F30388
:100020000C94F3030C94F3030C94E31D0C94B61E90
:100030000C944F150C94F3030C94F3030C94F303FA
:100040000C94F3030C94F3030C94F3030C94F30358
:100050000C94F3030C94B7150C94F3030C94F30372
:100060000C94F3030C94F3030C94F3030C94F30338
:100070000C94F3030C94F3030C94F3030C94F30328
:100080000C94F3030C94F3030C94F3030C94F30318
:100090000C94F3030C94F3030C94F3030C94F30308
:1000A0000C94F3030C94F3030C94F30314001A0060
:1000B0000800150017001C0018000C0012001300A7
:1000C00004001600070009000A000B000D000E00D6
:1000D0000F0033001D001B00060019000500110071
:1000E0001000360037003800000000002C002C0003
:1000F0002C002C002C002C0000000000010001004E
:1001000001000100010001000100010001000100E7
:1001100001000100010001000100010001000100D7
:1001200001000100010001000100010001000100C7
:1001300001000100010001000000000001000100B9
:1001400001000100010001000000000001000100A9
:100150000100010001000100010001000100010097
:100160000100010001000100010001000100010087
:100170000100010001000100010001000100010077
:100180000100010001000100000000000100010069
:100190000100010001000100000000000100010059
:1001A0000100010001000100010001000100010047
:1001B0000100010001000100010001000100010037
:1001C0000100010001000100010001000100010027
:1001D0000100010001000100000000000100010019
:1001E0000100010001000100000000000100010009
:1001F00001000100010001000100010001000100F7
:1002000001000100010001000100010001000100E6
:1002100001000100010001000100010001000100D6
:1002200001000100010001000000000001000100C8
:1002300001000100010001000000000001000100B8
:1002400001000100010001000100010001000100A6
:100250000100010001000100010001000100010096
:100260000100010001000100010001000100010086
:100270000100010001000100000000000100010078
:100280000100010001000100000000000100010068
:100290000100010001000100010001000100010056
:1002A0000100010001000100010001000100010046
:1002B0000100010001000100010001000100010036
:1002C0000100010001000100000000000100010028
:1002D0000100010001000100000000000100010018
:1002E0000100010001000100010001000100010006
:1002F00001000100010001000100010001000100F6
:1003000001000100010001000100010001000100E5
:1003100001000100010001000000000001000100D7
:1003200001000100010001000000000001000100C7
:1003300001000100010001000100010001000100B5
:1003400001000100010001000100010001000100A5
:100350000100010001000100010001000100010095
:100360000100010001000100000000000100010087
:100370000100010001000100000000000100010077
:100380000100010001000100010001000100010065
:100390000100010001000100010001000100010055
:1003A0000100010001000100010001000100010045
:1003B0000100010001000100000000000100010037
:1003C0000100010001000100000000000100010027
:1003D0000100010001000100010001000100010015
:1003E0000100010001000100010001000100010005
:1003F00001000100010001000100010001000100F5
:1004000001000100010001000000000001000100E6
:1004100001000100010001000000000001000100D6
:1004200001000100010001000100010001000100C4
:1004300001000100010001000100010001000100B4
:1004400001000100010001000100010001000100A4
:100450000100010001000100000000000100010096
:100460000100010001000100000000000100010086
:100470000100010001000100010001000100010074
:100480000100010001000100010001000100010064
:100490000100010001000100010001000100010054
:1004A0000100010001000100000000000100010046
:1004B0000100010001000100000000000100010036
:1004C0000100010001000100010001000100010024
:1004D0000100010001000100010001000100010014
:1004E0000100010001000100010001000100010004
:1004F00001000100010001000000000001000100F6
:1005000001000100010001000000000001000100E5
:1005100001000100010001000100010001000100D3
:1005200001000100010001000100010001000100C3
:1005300001000100010001000100010001000100B3
:1005400001000100010001000000000001000100A5
:100550000100010001000100000000000100010095
:100560000100010001000100010001000100010083
:100570000100010001000100010001000100010073
:100580000100010001000100010001000100010063
:100590000100010001000100000000000100010055
:1005A00001000100010001000000000012036B00C7
:1005B0006500790062006F00610072006400000055
:1005C000160371006D006B006200750069006C001D
:1005D00064006500720000000403090409026D0054
:1005E000040100A0FA09040000010301010009212F
:1005F000110100012240000705810308000A0904D7
:1006000001000103010200092111010001224D0036
:100610000705820308000A09040200010300000024
:100620000921110100012236000705830308000A91
:100630000904030001030000000921110100012247
:100640003900070584032000011201100100000099
:1006500008EDFE606001000102000105010906A12C
:1006600001050719E029E7150025019508750181A5
:100670000205081901290595057501910295017575
:100680000391010507190029F71500250195F87553
:10069000018102C005010980A10185021601002621
:1006A00003001A81002A8300751095018100C0059E
:1006B0000C0901A1018503160100269C021A010004
:1006C0002A9C02751095018100C005010902A10153
:1006D0000901A10005091901290515002501950544
:1006E0007501810295017503810105010930093108
:1006F0001581257F95027508810609381581257FAA
:10070000950175088106050C0A38021581257F952B
:100710000175088106C0C005010906A10105071978
:10072000E029E715002501950875018102950175FD
:1007300008810105081901290595057501910295A2
:1007400001750391010507190029FF150026FF0017
:10075000950675088100C00011241FBECFEFDAE0B6
:10076000DEBFCDBF04B603FE27C080912902909161
:100770002A02A0912B02B0912C028730904BA74007
:10078000B04BD1F41092290210922A0210922B023F
:1007900010922C0214BE84B7877F84BF0FB6F894E2
:1007A000A89580916000886180936000109260003D
:1007B0000FBEE0E0F8E3099511E0A0E0B1E0E4EF5E
:1007C000F3E402C005900D92A633B107D9F722E0F9
:1007D000A6E3B1E001C01D92A932B207E1F70E9481
:1007E000321B0C94F8210C94000090E080E00895F6
:1007F0000895089581E00895089581E008950C9486
:10080000FA030E94C80D2FEF84E39CE02150804042
:100810009040E1F700C000000C94DC15FF920F93AC
:100820001F93CF93DF938C01FC01C081D181809114
:100830006A0181113FC082818823B9F1CE010E94F3
:100840002F13F82E682FCE010E94D512BE018F2DD6
:100850000E945505EC01B8010E94FF03882309F4AA
:100860004AC0B801CE010E946507882309F443C03D
:10087000C531F0E7DF0718F5C23080E7D80708F088
:100880004BC0C115E0E7DE0789F1C130D047D1F197
:1008900081E08093380180933901C801DF91CF91C5
:1008A0001F910F91FF900C94FD03CE010E94041341
:1008B000F82ECCCFCE010E942F13BE01C9CFCC336E
:1008C00080E7D80709F4ACC0CD33D04709F7F80169
:1008D0008281882309F4CBC0109239010E948115CE
:1008E000909337018093360180E2A7C0F80182819E
:1008F00081110E94010480E0DF91CF911F910F913F
:10090000FF900895F80182818823A9F38091E9017D
:1009100081608093E901EFCFF8018281882309F497
:10092000BCCF0E94E014811102C00E94C6140E9434
:10093000FD1490E090931B0280931A02FE01E35095
:10094000F04780911A028160E231F105C8F4E55563
:10095000FB4F0C94A821BD04C904CD04D104D504D7
:10096000D904DD04E104E504E904ED04F104F5042F
:10097000F904FD0401050505090580911A0282604C
:1009800080931A0280911A020E9401150E94C80DDC
:10099000B2CF80911A028460F3CF80911A028860EE
:1009A000EFCF80911A028061EBCF80911A028062B2
:1009B000E7CF80911A028064E3CF80911A028068A9
:1009C000DFCF80911A028460EACF80911A028E7F75
:1009D000D7CF80911A028D7FD3CF80911A028B7F5F
:1009E000CFCF80911A02877FCBCF80911A028F7E62
:1009F000C7CF80911A028F7DC3CF80911A028F7B5F
:100A0000BFCF80911A028F77BBCF80911A028B7F64
:100A1000EACF90911A02892F97FB87F98058B0CFBF
:100A2000F8018281882361F0109238010E948115BB
:100A3000909337018093360182E00E94520B5BCF86
:100A40008091380181110FC080913601909137015A
:100A50000E948D15883C910530F486E20E94270A99
:100A600086E20E94030B82E00E94590B44CF8091E2
:100A7000390181110FC080913601909137010E9498
:100A80008D15883C910530F487E20E94270A87E2A1
:100A90000E94030B80E2E8CF0C94B4070C94B607D5
:100AA0000C94FC030C9450050895972F70E02AE0F5
:100AB000929F600D711D1124FB0198E2899FE00D4A
:100AC000F11D1124EE0FFF1FE455FF4F8591949106
:100AD0000895FC01EE0FFF1FE455FA4F85919491A4
:100AE00008950E9455050E94E406811520E49207AE
:100AF00008F08DC0811540E3940708F0E8C0803EFF
:100B0000910508F071C0803C910508F0CCC0883A8E
:100B1000910580F4853A910508F0CAC081309105AD
:100B200009F46EC020F08430910508F069C090E0AF
:100B300080E008958D3B9105D0F7883A910509F43E
:100B400004C1893A910509F403C18A3A910509F46F
:100B500002C18B3A910509F401C18C3A910509F45F
:100B600000C18B3B910509F4FFC08C3B910509F452
:100B7000FEC08D3A910509F4FDC0803B910509F452
:100B8000FCC08E3A910509F4FBC08F3A910509F437
:100B9000FAC0813B910509F4F9C0823B910509F443
:100BA000F8C0833B910509F4F7C0843B910509F433
:100BB000F6C0853B910509F4F5C0863B910509F423
:100BC000F4C0873B910509F4F3C0883B910509F413
:100BD000F2C0893B910509F4F1C08A3B910509F403
:100BE000F0C080E094E408958F3F910509F048F447
:100BF000803F910508F067C0883E910508F097CFC7
:100C00000895811520E2920708F05FC008958115CC
:100C100043E5940760F5811522E5920708F062C06C
:100C2000811541E5940708F058C0811520E5920729
:100C300008F450C09C0154E0369527955A95E1F789
:100C4000922F9370482F437021E030E002C0220FB2
:100C5000331F4A95E2F73C68392B86958695837059
:100C600040E2849FC0011124822B932B08958115AB
:100C700045E5940750F4811524E5920708F446C031
:100C8000982F8827846F906A0895811546E5940708
:100C900008F450C09C0130569F702115304108F077
:100CA00046CF90620895805C91090E94690508957D
:100CB000853A910509F443C0863A910509F042C08E
:100CC00082E890E40895906508959F70EECF99278B
:100CD000906C08959F70906A0895982F8827816F6F
:100CE000906A0895AC014370552721E030E002C0BE
:100CF000220F331F4A95E2F78695869540E2849F3E
:100D0000C0011124822B932B9C680895AC01437081
:100D1000552721E030E002C0220F331F4A95E2F749
:100D20008695869540E2849FC0011124822B932BE7
:100D30009A680895982F882788279F71B2CF81E8F5
:100D400090E4089583E890E4089582EE94E4089591
:100D500089EE94E408958AEE94E4089585EB94E492
:100D6000089586EB94E4089583EB94E4089584EB6E
:100D700094E4089587EB94E408958CEC94E408954A
:100D80008DEC94E4089583E895E408958AE895E469
:100D9000089582E995E4089584E995E4089581E24F
:100DA00096E4089583E296E4089584E296E4089533
:100DB00085E296E4089586E296E4089587E296E453
:100DC00008958AE296E41CCF8238910549F1B0F487
:100DD0008133910509F45CC048F48932910509F426
:100DE00052C08A32910509F458C00895853391059F
:100DF00009F444C08933910599F00895833E910523
:100E000031F138F4803E910591F0823E9105B1F0C8
:100E10000895863E910511F1873E910541F10895AF
:100E200020911A022370C9F080EE90E0089520917D
:100E30001A0220FF12C089E390E0089520911A025F
:100E400022FF0BC024FF2EC090E080E00895209187
:100E50001A0222FD2AC024FDF7CF089520911A021C
:100E600023FFFBCF24FDF0CF87EE90E00895209183
:100E70001A0223FFF0CF86EE90E0089520911A0227
:100E800025FD16C0089520911A0225FD14C008956D
:100E900020911A0226FD12C0089520911A0226FD03
:100EA00010C0089583EE90E0089582EE90E00895DA
:100EB00089E290E0089585E390E008958AE290E069
:100EC000089581E390E0C9CF08950F931F93CF93C6
:100ED0008C01FB018281811106C0C1E08C2FCF9172
:100EE0001F910F910895C0914701C11125C005318F
:100EF000104799F70E94640781E0809347010E94A0
:100F00008115909346018093450110923A01109209
:100F10003C0110923B0110923E0110923D01109253
:100F2000400110923F011092420110924101109233
:100F3000440110924301D2CF809145019091460126
:100F40000E948D15883C910540F680913A01E82F6A
:100F5000F0E0EE0FFF1FE55CFE4F118300838F5F13
:100F600080933A01C0E0BACF0C94F8030C94F903D3
:100F7000CF93DF9385B7806885BF85B7806885BFCD
:100F8000ADE1B1E041E251E0C1E0D0E08D91E82F68
:100F9000E295EF70F0E061A18F709E0101C0220F19
:100FA0008A95EAF7922F9095962391A382A1822B9E
:100FB00082A34A175B0751F7A3E1B1E04DE151E08D
:100FC000C1E0D0E08D91E82FE295EF70F0E061A1F3
:100FD0008F709E0101C0220F8A95EAF7922F90959B
:100FE000962391A382A1822B82A34A175B0751F714
:100FF0001092510110925001109249011092480133
:10100000109253011092520110924B0110924A011A
:10101000109255011092540110924D0110924C0102
:10102000109257011092560110924F0110924E01EA
:10103000DF91CF910C944C054F925F927F928F92EB
:101040009F92AF92BF92CF92DF92EF92FF920F9357
:101050001F93CF93DF93C8E4D1E00DE111E091E25B
:10106000A92E91E0B92EEE24E394F12C99249394C7
:10107000C880D98019821882D8018D918D01E82FFE
:10108000E295EF70F0E091A18F70970101C0220FFF
:101090008A95EAF7892F822B81A382A1822E8094E0
:1010A000882182A3B0EABA95F1F783E1482E81E066
:1010B000582E90E080E0D2017D912D01472F42957E
:1010C0004F7050E0DA0190967C90488159817F7092
:1010D000D70102C0AA0FBB1F7A95E2F7BD016721B5
:1010E00009F068C0B701082E02C0660F771F0A9486
:1010F000E2F7462B572B5983488301968A30910596
:10110000D1F681A1882281A282A1282B22A38881E5
:101110009981C816D90641F0909258010E94811514
:1011200090935A01809359012296A016B10609F0B6
:101130009FCF80915801882351F18091590190915E
:101140005A010E948D15069710F1809148019091E7
:101150004901909351018093500180914A019091EF
:101160004B01909353018093520180914C019091D7
:101170004D01909355018093540180914E019091BF
:101180004F019093570180935601109258010E948D
:101190004E0581E0DF91CF911F910F91FF90EF906D
:1011A000DF90CF90BF90AF909F908F907F905F9097
:1011B0004F90089570E060E09CCFE82FF0E0EE0FD4
:1011C000FF1FE05BFE4F8081918108950895909309
:1011D000600180935F010895E0915F01F0916001EB
:1011E000309721F00190F081E02D099480E008957E
:1011F000E0915F01F0916001309721F00280F3816E
:10120000E02D09940895E0915F01F091600130971D
:1012100021F00480F581E02D0994089520915D016D
:1012200030915E012817390771F090935E01809329
:101230005D01E0915F01F0916001309721F006803F
:10124000F781E02D0994089520915B0130915C01B4
:101250002817390771F090935C0180935B01E0914E
:101260005F01F0916001309721F00084F185E02D5D
:101270000994089508950C943A090E9478150E94E3
:10128000B8070C9449165F926F927F928F929F924B
:10129000AF92BF92CF92DF92EF92FF920F931F9384
:1012A000CF93DF93CDB7DEB72A970FB6F894DEBFA2
:1012B0000FBECDBF0E941C0892E6A92E91E0B92E68
:1012C00010E000E088248394912C502E802F0E94FF
:1012D000DD087C01F501C190D1905F01C816D906E7
:1012E00009F45EC08091E90181FD0E94E60890E06A
:1012F00080E0CE24DF243401082E02C0660C771C67
:101300000A94E2F7960126213721232B09F443C0E2
:101310008E835F82E620F72081E0EF2809F480E0E9
:1013200088870E9481158160782F9A8789874E81EE
:101330005F8168858A850E94FD09000F111FF801F1
:10134000EE59FE4F808191816826792671826082F4
:101350000E94CC180E94EC08909161018917B9F1A4
:101360000E94EC08809361012A960FB6F894DEBFC4
:101370000FBECDBFDF91CF911F910F91FF90EF90E6
:10138000DF90CF90BF90AF909F908F907F906F90A5
:101390005F900C94520501968A30910509F0ABCF0D
:1013A0000F5F1F4F0430110509F08FCF8FEF898336
:1013B0008A831B820E9481158160782F9D838C8394
:1013C00049815A816B818D810E94FD09C1CF2A9686
:1013D0000FB6F894DEBF0FBECDBFDF91CF911F9146
:1013E0000F91FF90EF90DF90CF90BF90AF909F90C4
:1013F0008F907F906F905F900895CF93DF93CDB7DC
:10140000DEB72B970FB6F894DEBF0FBECDBF4F836C
:10141000588769877A878B871E821D8285E0FE0147
:101420003796DE01119601900D928A95E1F7498178
:101430005A816B817C818D819E812B960FB6F894A9
:10144000DEBF0FBECDBFDF91CF910C947A10882301
:1014500009F4D8C0823871F40E94EC0881FDD2C032
:1014600089E30E94CF130E94971489E30E940C1411
:101470000C949714833859F40E94EC0880FDC2C084
:1014800083E50E94CF130E94971483E5EFCF843841
:1014900059F40E94EC0882FDB5C087E40E94CF1386
:1014A0000E94971487E4E2CF9CEF980F913A18F4CA
:1014B0000E94CF13DDCF90E2980F983050F48770E0
:1014C00091E001C0990F8A95EAF7892F0E944E1486
:1014D000CFCF9BE5980F933070F4853A31F0863A80
:1014E00039F083E890E00C940E0981E890E0FBCF9E
:1014F00082E890E0F8CF98E5980F953108F082C027
:10150000883A09F440C0893A09F440C08A3A09F49B
:1015100040C08B3A09F440C08C3A09F440C08B3B80
:1015200009F440C08C3B09F440C08D3A09F440C036
:10153000803B09F440C08E3A09F440C08F3A09F468
:1015400040C0813B09F440C0823B09F440C0833B6A
:1015500009F440C0843B09F440C0853B09F440C015
:10156000863B09F440C0873B09F440C0883B09F43E
:1015700040C0893B09F440C08A3B09F440C090E078
:1015800080E00C94240982EE90E0FBCF89EE90E09D
:10159000F8CF8AEE90E0F5CF85EB90E0F2CF86EBC6
:1015A00090E0EFCF83EB90E0ECCF84EB90E0E9CFDD
:1015B00087EB90E0E6CF8CEC90E0E3CF8DEC90E011
:1015C000E0CF83E891E0DDCF8AE891E0DACF82E9ED
:1015D00091E0D7CF84E991E0D4CF81E292E0D1CFFE
:1015E00083E292E0CECF84E292E0CBCF85E292E03C
:1015F000C8CF86E292E0C5CF87E292E0C2CF8AE20E
:1016000092E0BFCF0895882309F44BC0823871F46B
:101610000E94EC0881FF45C089E30E94CF130E941D
:10162000971489E30E940C140C949714833859F48E
:101630000E94EC0880FF35C083E50E94CF130E9412
:10164000971483E5EFCF843859F40E94EC0882FFA9
:1016500028C087E40E94CF130E94971487E4E2CF4A
:101660009CEF980F913AF0F290E2980F983050F476
:10167000877091E001C0990F8A95EAF7892F0E943F
:101680005414D2CF9BE5980F933020F490E080E083
:101690000C940E09885A853120F490E080E00C9477
:1016A00024090895882321F00E944E140C94971465
:1016B0000895882321F00E9454140C9497140895DF
:1016C0008F929F92AF92BF92DF92EF92FF920F9311
:1016D0001F93CF93DF937C01D62FC72FFC01058189
:1016E00002950F70128111110E946D140E94C8138F
:1016F000D82E882371F0112321F180E28D0F8830DC
:1017000000F182E00E94B2130E94C81391E0D82E2B
:10171000D926EC2FE295EF70F0E0EF56F44F0C94E1
:10172000A821A30BA30BF30BF30B350C510CD00B1F
:10173000D00B5C0CD00BF40CF40C670DD00BD00B61
:10174000700DD12CE6CF0C2F0F70C07F11F00295D9
:10175000007F1123A9F0002359F080E28D0F88301B
:1017600010F0D11109C0802F0E944E140E949714CE
:101770008D2F0E94270A14C0802F0E945F14F6CF7D
:101780008D2F0E94030B002359F080E28D0F8830CB
:1017900010F0D11124C0802F0E9454140E9497147D
:1017A000DD2009F4A4C10E94A51380FDA0C1F701AA
:1017B00012820E949F130E941912C7010E94830D7A
:1017C0000E949F13DF91CF911F910F91FF90EF9097
:1017D000DF90BF90AF909F908F900C943A12802F23
:1017E0000E946514DBCFFC2FFF70BF2EC07FC0327C
:1017F00019F0B29480EFB822DD2369F0D13029F1DD
:10180000112369F1002359F0F701858180FFB0CFE2
:101810008F70858304C0112361F0011104C08B2DEA
:101820000E94520BBDCF8B2D0130D1F70E94811445
:10183000B7CF011106C00E9484148B2D0E94590B52
:10184000AFCF013009F4ACCFF6CF112321F0063031
:1018500008F0A6CFE4CF053008F0A2CFEECF0023EA
:1018600061F38D2F0E94030B9BCF8C2F869586955D
:10187000837069F0813009F093CF8D2F9C2F937086
:10188000111102C090E080E00E94240989CF8D2FC1
:101890009C2F9370111102C090E080E00E940E090D
:1018A0007FCF8D2F112329F00E94D5170E94C118D8
:1018B00077CF0E943D18FACF8C2F837009F047C074
:1018C00011116ECF2D2F229526952770220F220FF2
:1018D0006D2F6F70862E912CB12CA12C022E04C07E
:1018E000880C991CAA1CBB1C0A94D2F760E070E01B
:1018F000CB01D4FF0FC06FE070E080E090E004C047
:10190000660F771F881F991F2A95D2F760957095EB
:1019100080959095C695C695C370C23051F080F4FD
:10192000682979298A299B29C13071F00E94C21146
:1019300037CF682979298A299B290E94DE1130CF67
:101940000E94C211C501B4010E94A61129CF86953B
:10195000112311F08C2F8170882309F421CF2D2FB2
:10196000229526952770220F220F6D2F6F70862EDD
:10197000912CB12CA12C022E04C0880C991CAA1CFD
:10198000BB1C0A94D2F760E070E0CB01D4FF0FC01B
:101990006FE070E080E090E004C0660F771F881F62
:1019A000991F2A95D2F76095709580959095C69568
:1019B000C695C370C23051F080F4682979298A290C
:1019C0009B29C13071F00E949C12EACE68297929C6
:1019D0008A299B290E94B812E3CE0E949C12C5015D
:1019E000B4010E948012DCCEE0E2ED0FE53108F098
:1019F00062C0F0E0E250F34F0C94A821130D130DD8
:101A0000130D130D130D130D130D130D130D130DD6
:101A1000130D130D130D130D130D130D200D2E0D9E
:101A2000350D3C0D460DDF708C2F8F71112321F089
:101A30000E9419128D2FF4CE0E943A128D2FFECEE5
:101A4000112341F0053008F0ABCE8C2F8F710E942E
:101A50005F12A6CE063008F0A3CEF7CF8C2F8F7181
:101A6000112339F00E9419129BCE8C2F8F711123F4
:101A7000C9F30E943A1294CE112329F08C2F8F7152
:101A80000E9404128DCE0E94FA118ACE112349F0D1
:101A9000CF718C2F0E94191263E08C2F0E94A91322
:101AA0007FCE81E00E94B213023008F479CE82E04A
:101AB0000E94B21375CE112329F0011159CE8C2F3B
:101AC0008F71D0CF0111CDCE8C2F8F71D2CF4C2FF3
:101AD0004F706D2FC7010E94F5030E94231160CE45
:101AE0004C2F4F706D2FC7010E94540559CEDF91C6
:101AF000CF911F910F91FF90EF90DF90BF90AF902B
:101B00009F908F9008950F931F93CF93DF93EC01D5
:101B1000988189812B813C81232B39F08F3F19F4E7
:101B200081E09F3F19F080E001C081E080FD17C097
:101B3000CE010E940E04882391F0688179818A8108
:101B40000E947B138C010E94D4120E949B11B80149
:101B5000CE01DF91CF911F910F910C94600BDF911B
:101B6000CF911F910F9108950E946D140E947E14D1
:101B70000E9440140E9497140E946E190E94C1187E
:101B800090E080E00E940E0990E080E00C9424092F
:101B90000E945C140C94B40D0E947113E92FE2951D
:101BA000EF70E250EE30E0F4F0E0E752F24F0C94C8
:101BB000A821E70DE70DF00DF00DF20DF00DF00D81
:101BC000F00DE70DE70DF70DF00DF00DF70D803F6F
:101BD00019F020F4803E20F481E00895843FE1F381
:101BE00080E00895803EC0F3813FD1F7F5CF93FBAD
:101BF000882780F90895CF93DF9300D000D01F92FB
:101C0000CDB7DEB70F900F900F900F900F90DF9130
:101C1000CF910895CF93DF9300D000D000D0CDB7FF
:101C2000DEB726960FB6F894DEBF0FBECDBFDF91AC
:101C3000CF9108951F93CF93DF93C0916B0116E06E
:101C400080916C018C1304C0DF91CF911F91089596
:101C5000D0E01C9FF0011D9FF00D1124E359FE4FB1
:101C60004081518162817381848195810E940A0E35
:101C70002196C770E5CF40919D0150919E016091E2
:101C80009F017091A0018091A1019091A2010C94FB
:101C90000A0E1F93CF93DF938091A201807FD1F42E
:101CA00080919F018823B1F080916B01D0916C01EC
:101CB000B0919D01C0919E014091A0015091A10160
:101CC000A1E0BF3F09F0A0E0BA016095709516E071
:101CD000D81304C0DF91CF911F91089521E04115E1
:101CE000510521F02A2FCF3F09F020E090E020FDA0
:101CF00038C0189FF001199FF00D1124E359FE4FD1
:101D000021812C132EC020812B132BC02281211165
:101D100028C0238134812417350700F1241B350B9B
:101D2000283C3105F0F42091A2012F70206120930E
:101D3000A20126E0289FF001299FF00D1124EE5802
:101D4000FE4F80818F70806180838DE991E00E94D9
:101D5000830DDF91CF911F910C941A0E260F371F20
:101D6000DFCF01968770B4CFAF92BF92CF92DF9250
:101D7000EF92FF920F931F93CF93DF93CDB7DEB710
:101D800061970FB6F894DEBF0FBECDBF8C0185E022
:101D9000F801DE011D9601900D928A95E1F7D801B8
:101DA0004C9111965C9111971296EC9030919D0197
:101DB00060919E018091A0019091A10121E0009786
:101DC00031F06F3F19F421E03F3F09F020E0B22FDE
:101DD000B170BB2E20FD80C1F801C380D480A090DB
:101DE0009F01AA2009F427C1C816D906D0F1D6014F
:101DF000A81BB90BCD01FF24F394883C910508F092
:101E0000F12C8091A201982F907FFF2009F4CAC085
:101E1000911187C0FE2C651329C0341327C0E1102F
:101E200025C08F7080618093A2010E943B0E8DE9D6
:101E300091E00E94830D8091A201F80185838F2D8E
:101E400061960FB6F894DEBF0FBECDBFDF91CF9184
:101E50001F910F91FF90EF90DF90CF90BF90AF90C8
:101E60000895809590958C0D9D1DC5CF81E0CD285E
:101E700031F05F3F19F481E04F3F09F080E080FDD1
:101E800024C081E08E25F82FF170DF2E80FF3FC047
:101E900080916B0120916C0136E0821318C04D8750
:101EA0005E878D859E850E947113292F22952F7044
:101EB000223008F1243030F59F7009F1D8011596D1
:101EC0009C91907FE1F4FB2CBACF80E0DCCF90E0D6
:101ED000389FF001399FF00D1124E359FE4F6181C5
:101EE000561306C06081461303C062816E110FC095
:101EF00001968770D2CF9F7011F0882321F3805E06
:101F0000883008F3C8010E94830DBD2CDCCFEE2081
:101F100009F495CF8091A20181608093A201F12CF8
:101F20008ECF651312C0341310C0E1100EC0F8013B
:101F30008583C8010E94830D86E0F801ADE9B1E018
:101F400001900D928A95E1F741C04D875E878D859E
:101F50009E850E94CC0D882309F4C8C0EE2009F4A8
:101F6000C5C08091A201803270F020919D01309116
:101F70009E0138872F831986DB86CA868C87CE011F
:101F800007960E94830D86E0F801ADE9B1E001906B
:101F90000D928A95E1F70E94490E0E943B0EFF24A4
:101FA000F3944DCF911115C07C2DD98AC88A6E2D1E
:101FB00089890E94FB0D8DE991E00E94830D86E0E6
:101FC000EDE9F1E0DF011D928A95E9F70E943B0EF1
:101FD00036CF651312C0341310C0E1100EC0F801E3
:101FE0008583C8010E94830DEDE9F1E086E0DF0101
:101FF0001D928A95E9F7FA2C22CF4D875E878D8551
:102000009E850E94CC0D882309F470C0EE2009F44F
:102010006DC08091A201803208F4B5CF20919D015E
:1020200030919E013A8329831B82DD82CC828E838C
:10203000CE010196A6CFC816D90638F1F601E81BE5
:10204000F90BCF01F12C883C910508F03DC0FE2C26
:10205000EE2009F44BC0651326C0341324C08091D0
:10206000A20180FD17C0982F907FA1F0D80115968E
:102070008C931597903F09F45CCF982F907F905FD9
:102080008F70892B15968C9354CF809590958C0DDD
:102090009D1DD8CF86E0F801ADE9B1E001900D9229
:1020A0008A95E1F7CCCE4D875E878D859E850E940F
:1020B000CC0D811168CF8091A20181608093A20133
:1020C000C8010E94830DBBCE7C2DD98AC88A6E2D93
:1020D00089890E94FB0D73CFEE2041F04D875E870A
:1020E0008D859E850E94CC0D81114DCFC8010E9427
:1020F000830D55CF1F93CF93DF93CDB7DEB72C97CA
:102100000FB6F894DEBF0FBECDBF4F8358876987E7
:102110007A878B879C87CE0107960E94B40E88230E
:1021200009F442C09F8188852A853B85232B39F09D
:102130008F3F19F481E09F3F19F080E001C081E0FA
:1021400080FD08C04F81588569857A858B859C857F
:102150000E940A0E16E080916B0190916C01891724
:1021600009F467C0819FC001112483599E4F0E94CA
:10217000B40E882309F45DC0E0916B011E9FF0014D
:102180001124E359FE4F4081518162817381848122
:1021900095810E940A0E80916B0190E001968770F4
:1021A000992780936B01D7CF86E0FE013796DE0139
:1021B000119601900D928A95E1F79F8188852A8575
:1021C0003B85232B39F08F3F19F481E09F3F19F0B5
:1021D00080E001C081E080FDBDCF20916C0130E046
:1021E000C90101968770992740916B01481719061C
:1021F00099F096E0929FD001939FB00D1124A359BE
:10220000BE4FFE01319601900D929A95E1F78093B1
:102210006C010E941A0E9ECF0E94C80D10926C0194
:1022200010926B0186E0EDE9F1E0DF011D928A95E5
:10223000E9F72C960FB6F894DEBF0FBECDBFDF9145
:10224000CF911F910895EF92FF920F931F93CF9319
:10225000DF938C01892B81F0F12CEE24E394E801CB
:102260002196F8018491843770F4843008F05FC0BF
:102270008130B1F08230A1F1DF91CF911F910F91A8
:10228000FF90EF900895853709F44CC008F43DC0E5
:102290009CE7980F903780F78F770E94030B49C017
:1022A0000E5F1F4FFE01849190E2980F983060F40A
:1022B0008770FE2D01C0FF0F8A95EAF78F2F0E94CD
:1022C00070140E94971402C00E94270A8F2D81501B
:1022D00030F2EFE9FFE03197F1F700C00000F7CFEF
:1022E0000E5F1F4FFE01849190E2980F983050F4DA
:1022F0008770FE2D01C0FF0F8A95EAF78F2F0E948D
:102300007614DFCF0E94030BE1CF0E5F1F4FFE015B
:10231000C491C150D8F28FE99FE00197F1F700C056
:102320000000F7CF0E5F1F4FFE01F490CFCF0E9449
:10233000270A8E01CBCF08956093C0017093C1012D
:102340008093C2019093C3010C94B40D0F931F931B
:102350000091C0011091C1012091C2013091C301CF
:10236000DC01CB01802B912BA22BB32B8093C001DE
:102370009093C101A093C201B093C3011F910F912B
:102380000C94B40D0F931F930091C0011091C101E3
:102390002091C2013091C301DC01CB018023912344
:1023A000A223B3238093C0019093C101A093C201E3
:1023B000B093C3011F910F910C94B40D0F931F9311
:1023C0000091C0011091C1012091C2013091C3015F
:1023D000DC01CB0180279127A227B3278093C0017E
:1023E0009093C101A093C201B093C3011F910F91BB
:1023F0000C94B40D1092BC011092BD011092BE015C
:102400001092BF010C94B40D41E050E060E070E028
:1024100004C0440F551F661F771F8A95D2F740935B
:10242000BC015093BD016093BE017093BF010C9439
:10243000B40D41E050E060E070E004C0440F551F6F
:10244000661F771F8A95D2F78091BC019091BD01DC
:10245000A091BE01B091BF01842B952BA62BB72B69
:102460008093BC019093BD01A093BE01B093BF01C6
:102470000C94B40D41E050E060E070E004C0440F03
:10248000551F661F771F8A95D2F740955095609526
:1024900070958091BC019091BD01A091BE01B09159
:1024A000BF0184239523A623B7238093BC01909377
:1024B000BD01A093BE01B093BF010C94B40D41E0E7
:1024C00050E060E070E004C0440F551F661F771FA6
:1024D0008A95D2F78091BC019091BD01A091BE0177
:1024E000B091BF0184279527A627B7278093BC0109
:1024F0009093BD01A093BE01B093BF010C94B40DA5
:102500000F931F930091BC011091BD012091BE015A
:102510003091BF01DC01CB01802B912BA22BB32B7F
:102520008093BC019093BD01A093BE01B093BF0105
:102530001F910F910C94B40D0F931F930091BC0148
:102540001091BD012091BE013091BF01DC01CB0192
:1025500080239123A223B3238093BC019093BD01D8
:10256000A093BE01B093BF011F910F910C94B40DC5
:102570000F931F930091BC011091BD012091BE01EA
:102580003091BF01DC01CB0180279127A227B3271F
:102590008093BC019093BD01A093BE01B093BF0195
:1025A0001F910F910C94B40D08952AE0929F800D15
:1025B0001124982F977071E001C0770F9A95EAF770
:1025C00086958695869525E0829FC001112450E06E
:1025D00040E0A62FB0E0FC01E40FF51FED55FE4FE3
:1025E00060819D01042E02C0369527950A94E2F77A
:1025F0002170219526272723262720834F5F5F4FB1
:102600004530510541F708952AE0929F800D11242D
:10261000982F977086958695869525E0829FA001D4
:10262000112470E060E080E0FA01E60FF71FED553D
:10263000FE4F208130E0092E02C0369527950A947E
:10264000E2F721703327062E01C0220F0A94EAF721
:10265000822B6F5F7F4F6530710531F70895BF9210
:10266000CF92DF92EF92FF920F931F93CF93DF935E
:102670008C01C090BC01D090BD01E090BE01F090F3
:10268000BF018091C0019091C101A091C201B091A0
:10269000C301C82AD92AEA2AFB2ACFE1D0E0BC2EFE
:1026A000D701C6010C2E04C0B695A79597958795BE
:1026B0000A94D2F780FD0EC0219788F7B12C8B2D9C
:1026C000DF91CF911F910F91FF90EF90DF90CF900E
:1026D000BF900895B8018C2F0E947105019761F396
:1026E000EECFCF93DF93EC010E942F13BE01DF9159
:1026F000CF910C9471051F93CF93DF93EB019091D1
:102700006A01992331F0CB01DF91CF911F910C9495
:102710007113882379F0CB010E942F13182F682F93
:10272000CE010E94D512BE01812FDF91CF911F9162
:102730000C947105CB010E940413182FF4CF8091E3
:10274000C40185958595859508958091C40187700C
:10275000089598E0899F90011124622B6093C40131
:102760000C9419129091C401809589238093C4011F
:10277000282F277061F4282F082E000C330B921796
:10278000130629F08595859585950C943A12089540
:102790009091C401977081E009F480E008959091D0
:1027A00012019923E1F090911A0297FF18C0E82FC7
:1027B000E695E695E695EF3139F1209100013091EB
:1027C0000101E20FF32FF11D877021E030E001C01D
:1027D000220F8A95EAF78181822B818308952091C7
:1027E000000130910101F90132969FEF40E05191D3
:1027F000851751F09F3F19F4511101C0942F4F5F7D
:102800004E31A9F79F3F09F40895290F311D97FD17
:102810003A95F90182830895909112019923F1F07C
:1028200090911A0297FF1AC0E82FE695E695E69573
:10283000EF3129F12091000130910101E20FF32FD6
:10284000F11D282F277081E090E001C0880F2A95A4
:10285000EAF7809591818923818308952091000171
:1028600030910101F9013296205E3F4F9191891319
:1028700003C0DF0111971C92E217F307B9F708951F
:1028800081E090E0E0910001F0910101E80FF91F73
:102890001082019680329105A9F708959091E80180
:1028A000892B8093E8010895982F90958091E801F5
:1028B00089238093E80108951092E801089590918A
:1028C000E701892B8093E7010895982F90958091D7
:1028D000E70189238093E70108951092E7010895A5
:1028E0009091E601892B8093E6010895982F9095A9
:1028F0008091E60189238093E60108951092E60114
:1029000008958093C50108951092C50108952091FE
:10291000000130910101F9013196205E3F4F80E0C6
:10292000919191118F5FE217F307D1F70895E0912C
:102930000001F09101018091E8018083E0910001A4
:10294000F091010180819091E701892B8083E091D2
:102950000001F091010180819091E601892B808333
:102960009091C501992361F0E0910001F09101017E
:102970008081892B80830E94871481111092C50168
:1029800080910001909101010C94F8086DEE7EEFAA
:1029900090E080E00E94E22160E082E090E00E940E
:1029A000D02160E083E090E00E94D02160E084E0EC
:1029B00090E00E94D02160E085E090E00C94D0216E
:1029C00090E080E00E94CA2121E08D3E9E4F09F0F8
:1029D00020E0822F089582E090E00C94C221682FBD
:1029E00082E090E00C94D02183E090E00C94C2212E
:1029F000682F83E090E00C94D02184E090E00C9468
:102A0000C221682F84E090E00C94D02180912002B4
:102A1000843039F11092EA0188E190E020E40FB6A9
:102A2000F894A895809360000FBE2093600080E02A
:102A30000E94520583B7817F846083BF83B7816022
:102A400083BF7894889583B78E7F83BF0FB6F89441
:102A5000A89580916000886180936000109260006A
:102A60000FBE089508950895CF930E9432150E94D5
:102A70001C080E943315C0E08C2F0E94DD08892BB2
:102A800031F4CF5FC430C1F780E0CF91089581E089
:102A9000FCCF0E94C80D0E94EC080C9452051F92B6
:102AA0000F920FB60F9211248F939F93AF93BF9302
:102AB0008091EA01811113C0809116029091170252
:102AC000A0911802B09119024196A11DB11D8093E9
:102AD000160290931702A0931802B0931902BF91A7
:102AE000AF919F918F910F900FBE0F901F901895EF
:102AF00082E084BD93E095BD9AEF97BD80936E0010
:102B000008952FB7F8948091160290911702A09122
:102B10001802B09119022FBF0895CF92DF92EF9261
:102B2000FF920F931F932FB7F89440911602509184
:102B3000170260911802709119022FBF6A017B0180
:102B4000EE24FF248C0130E020E0C016D106E2061E
:102B5000F30650F0481B590BCA011F910F91FF90CB
:102B6000EF90DF90CF90089541505109F3CF1F921D
:102B70000F920FB60F9211248F939F93AF93BF9331
:102B80008091160290911702A0911802B09119023B
:102B90000196A11DB11D8093160290931702A09378
:102BA0001802B0931902BF91AF919F918F910F902E
:102BB0000FBE0F901F9018950E94681DF8942FEF7C
:102BC00087EA91E6215080409040E1F700C0000084
:102BD00087E090EBDC018093290290932A02A09376
:102BE0002B02B0932C0288E19CE00FB6F894A895D4
:102BF000809360000FBE90936000FFCFAF92BF92B2
:102C0000CF92DF92EF92FF920F931F93CF93C0E08A
:102C1000CC24C394D12CE82EF12C8C2F0E94DD08FB
:102C20005C0110E000E0C601002E02C0880F991F71
:102C30000A94E2F78A219B21892B99F40F5F1F4F99
:102C40000A30110581F7CF5FC43039F780E0CF91AA
:102C50001F910F91FF90EF90DF90CF90BF90AF90BA
:102C60000895602F7C2F80E00E945505E816F90634
:102C700029F781E0ECCFCF93C82F8CE20E94FE159C
:102C8000882321F08C2FCF910C94FE1580E0CF91FA
:102C90000895CF930E94E014811102C00E94C614CF
:102CA000C5E608C00E941C088FE39CE90197F1F774
:102CB00000C00000C150B1F789E20E943B168111AB
:102CC000EFC08AE20E943B1681110E94C61485E083
:102CD0000E943B1681110E94DC150E94EB14809328
:102CE000E90187E00E943B16882371F08BE10E9486
:102CF0003B16882309F4B1C09091E901892F8D7F9B
:102D000091FF82608093E9018091E9010E94EF14B4
:102D10000E94FD1490E090931B0280931A0280EEB3
:102D20000E943B16882341F090911A02892F8E7FD2
:102D300090FF816080931A0289E30E943B168823EA
:102D400041F090911A02892F8D7F91FF82608093CC
:102D50001A0282EE0E943B16882341F090911A02DB
:102D6000892F8B7F92FF846080931A0286EE0E94E7
:102D70003B16882341F090911A02892F877F93FF99
:102D8000886080931A0283EE0E943B16882341F0EC
:102D900090911A02892F8F7E94FF806180931A028E
:102DA00085E30E943B16882341F090911A02892FF7
:102DB0008F7D95FF806280931A0281E30E943B160B
:102DC000882341F090911A02892F8F7B96FF8064AF
:102DD00080931A0281E10E943B16882341F0909172
:102DE0001A02892F97FB87F9805880931A028091E5
:102DF0001A020E94011587E20E943B16C82F8EE13D
:102E00000E943B168111C2608FE10E943B16811126
:102E1000C46080E20E943B168111C86081E20E947A
:102E20003B168111C06182E20E943B168111C06293
:102E300083E20E943B168111C06484E20E943B162B
:102E4000882341F1C0688C2F0E94F8146C2F70E029
:102E500090E080E0CF910C949C118EE00E943B1694
:102E6000882339F09091E901892F8B7F92FF84604C
:102E700049CF80E10E943B169091E901882329F017
:102E8000892F877F93FF88603DCF892F8E7F90FFAA
:102E9000816038CFC111D7CF0E94F414682FD7CFEB
:102EA000CF9108958091ED0180FF12C060910501DE
:102EB00085E0689FB00111247595679575956795B4
:102EC00060387105A8F561157105A1F1862F089587
:102ED00081FF09C06091050185E0689FB001112460
:102EE00075956795EDCF82FF07C06091050185E07C
:102EF000689FB0011124E4CF2091EE012223A9F0B4
:102F0000909104016091050185E0689FB001112452
:102F10002917B0F6269FA001279F500D1124692F75
:102F200070E0CA010E949421CBCF65E070E0CECF63
:102F30008FE7089581E008958091ED0180FF0CC036
:102F40006091030170E075956795759567956115BA
:102F5000710549F1862F089581FF06C06091030134
:102F600070E075956795F3CF6091030182FD0BC00A
:102F70009091EE019923A1F06091020180910301EB
:102F8000961738F0682F70E06038710500F38FE70E
:102F90000895899FC001112470E00E949421F4CF0C
:102FA00061E070E0D7CF81E00895803F31F40E9466
:102FB000521781958093F1010895813F19F40E9481
:102FC0005217F8CF823F31F40E94521781958093B7
:102FD000F0010895833F19F40E945217F8CF893FFA
:102FE00029F40E949C178093F20108958A3F21F4EE
:102FF0000E949C178195F7CF8B3F31F40E949C175C
:1030000081958093F30108958C3F19F40E949C17D9
:10301000F8CF843F31F48091EF0181608093EF011C
:103020000895853F21F48091EF018260F7CF863FBC
:1030300021F48091EF018460F1CF873F21F48091EA
:10304000EF018860EBCF883F21F48091EF01806130
:10305000E5CF8D3F31F48091ED0181608093ED01EA
:1030600008958E3F21F48091ED018260F7CF8F3F6C
:10307000B9F78091ED018460F1CF803FC1F4809178
:10308000F10187FD1092F1018091F00181110EC0D4
:103090008091F10181110AC08091F201811106C075
:1030A0008091F301811102C01092EE010895813FD9
:1030B00029F48091F10118162CF3E6CF9091F001DC
:1030C000823F29F497FFE0CF1092F001DDCF833FDC
:1030D00019F41916CCF3D8CF893F39F48091F20155
:1030E000181694F61092F201CFCF8A3F29F48091FE
:1030F000F20187FFC9CFF6CF8B3F39F48091F301FE
:1031000087FFC2CF1092F301BFCF8C3F29F480918B
:10311000F3011816BCF3B8CF843F31F48091EF016E
:103120008E7F8093EF01B0CF853F21F48091EF0136
:103130008D7FF7CF863F21F48091EF018B7FF1CF18
:10314000873F21F48091EF01877FEBCF883F21F407
:103150008091EF018F7EE5CF8D3F31F48091ED01BD
:103160008E7F8093ED0190CF8E3F21F48091ED0111
:103170008D7FF7CF8F3F09F087CF8091ED018B7F57
:10318000F0CF8FEE91E00E9403090E948115909389
:10319000EC018093EB0108951F93CF93DF9380910F
:1031A000EB019091EC010E948D15AC019091EE0124
:1031B0002091060130E0911106C0209107018AE0BC
:1031C000289F900111244217530780F08091F0014D
:1031D000C091F1011091F201D091F30181110AC067
:1031E000C11178C0111176C0D11174C0DF91CF9197
:1031F0001F9108959F3F19F09F5F9093EE0118165D
:1032000024F40E9452178093F0018091F00187FF0F
:1032100005C00E94521781958093F0011C1624F47A
:103220000E9452178093F1018091F10187FF05C040
:103230000E94521781958093F1016091F0016623FD
:1032400031F1C091F101CC2311F1062E000C770B66
:10325000880B990B0E949B2023E333E343E35FE356
:103260000E94FF200E9463206093F0016C2FCC0F1E
:10327000770B880B990B0E949B2023E333E343E3F6
:103280005FE30E94FF200E9463206093F10111160A
:1032900024F40E949C178093F2018091F20187FF31
:1032A00005C00E949C1781958093F2011D1624F49D
:1032B0000E949C178093F3018091F30187FF05C062
:1032C0000E949C1781958093F301DF91CF911F910C
:1032D0000C94C1189F3F09F08FCFA0CF85E0EFEE8F
:1032E000F1E0DF011D928A95E9F71092EE0110924C
:1032F000ED010895809114020895CF93DF9300D0DB
:103300001F92CDB7DEB79C0180912002843019F561
:1033100093E099833B832A839093E9008FEF909108
:10332000E800815095FD06C095ED9A95F1F70000F3
:103330008111F5CF8091E80085FF0DC050E040E09D
:1033400063E070E0CE0101960E94D81B8091E800F6
:103350008E778093E8000F900F900F90DF91CF91C0
:103360000895CF93DF9300D01F92CDB7DEB72091A1
:103370002002243031F522E02983805891099B8373
:103380008A8383E08093E9008FEF9091E800815079
:1033900095FD06C095ED9A95F1F700008111F5CFE6
:1033A0008091E80085FF0DC050E040E063E070E0F0
:1033B000CE0101960E94D81B8091E8008E77809301
:1033C000E8000F900F900F90DF91CF9108959C012E
:1033D000809120028430F9F482E08093E9009FEF2D
:1033E0008091E800915085FD06C085ED8A95F1F742
:1033F00000009111F5CF8091E80085FF0CC050E0EE
:1034000040E065E070E0C9010E94D81B8091E800AF
:103410008E778093E8000895CF93DF93EC0180913D
:1034200020028430F1F4909112019923E9F09091F7
:103430001A0297FF19C08093E9008FEF9091E8007E
:10344000815095FD06C095E19A95F1F70000811134
:10345000F5CF8091E80050E040E060E270E085FD4B
:103460001AC0DF91CF91089581E08093E9008FEF3A
:103470009091E800815095FD06C095ED9A95F1F781
:1034800000008111F5CF8091E80085FFEACF50E080
:1034900040E068E070E0CE010E94D81B8091E80017
:1034A0008E778093E80080E2FE01A4EFB1E0019006
:1034B0000D928A95E1F7D5CF80911F02811109C045
:1034C0000E94681D0E94C51D8091E2008460809367
:1034D000E200089510921F020895089508950C9433
:1034E000491542E061EC81E00E94E61C42E061EC9B
:1034F00082E00E94E61C42E061EC83E00E94E61C50
:1035000042E261EC84E00C94E61C8091220283305C
:1035100009F455C030F4813071F1823009F491C062
:1035200008958A3009F47DC08B3009F463C0893076
:1035300009F044C080912102813209F03FC080919E
:10354000250290912602009711F00397B9F580911A
:10355000E800877F8093E8008091E80082FF2AC01E
:103560008091F100809314028091E8008B77809322
:10357000E8000C941A1D80912102813AF9F480919F
:10358000E800877F8093E8008091250290912602D1
:10359000892B61F460E284EF91E070E00E94271CC7
:1035A0008091E8008B778093E800089560E090E0D8
:1035B00080E0F3CF809120028111CECF08958091D9
:1035C0002102813AD9F78091250290912602892B18
:1035D000A9F78091E800877F8093E8008091E80058
:1035E00080FFFCCF809112018093F1008091E80070
:1035F0008E77BDCF80912102813201F78091250223
:1036000090912602892BD1F68091E800877F8093E4
:10361000E8000E941A1D80912302809312010C94ED
:10362000C80D80912102813249F68091E800877FA0
:103630008093E8000E941A1D809124028093150255
:10364000089580912102813A09F0B8CF8091E80075
:10365000877F8093E8008091E80080FFFCCF809115
:103660001502C2CF84B7877F84BF0FB6F894A895A0
:1036700080916000886180936000109260000FBEAE
:1036800080E880936100109261000E943B090E94D3
:10369000681D0E94C51D8091E20084608093E20055
:1036A00078940E9447200E943D0988E091E00E94A2
:1036B000E70880912002853019F00E944309F9CF74
:1036C0000E94061580911E02882399F30E943415EA
:1036D000882379F30E94C21BECCF292F3327233094
:1036E000310579F158F421303105F1F022303105FE
:1036F00019F190E080E030E020E01AC0213231057D
:1037000099F122323105A9F7643098F770E0FB0196
:10371000EE0FFF1FEB5DFE4F208131816F5D7E4F0D
:10372000FB01808190E004C082E190E029E436E072
:10373000FA013183208308958DE690E02CED35E089
:10374000F7CF99278130910561F028F0029789F62B
:10375000ECEAF5E002C0E8EDF5E0849190E09F012D
:10376000E7CFE0ECF5E0F9CF643008F0C2CFE62F08
:10377000F0E0EE0FFF1FE35DFE4F2081318189E015
:1037800090E0D6CF80E189BD82E189BD09B400FE19
:10379000FDCF8091D8008F7D8093D8008091E0008C
:1037A00082608093E0008091E00081FDFCCF08956D
:1037B000AF92BF92CF92DF92FF920F931F93CF935E
:1037C000DF936C01EB018A010E94391DF82E8111F3
:1037D00023C00115110539F0F80180819181C81BC2
:1037E000D90BC80ED91EB12CA12C2097A9F080911D
:1037F000E80085FD22C08091E8008E778093E80084
:1038000001151105A1F0F80180819181A80EB91E62
:10381000B182A08285E0F82E8F2DDF91CF911F918C
:103820000F91FF90DF90CF90BF90AF9008950E94CE
:10383000391D8823D1F2F82EEFCFF60181916F0167
:103840008093F1002197FFEFAF1ABF0ACECFFC01A2
:10385000809127029091280286179707A0F06115A2
:10386000710529F49091E8009E779093E80090E02C
:103870006115710551F4911108C08091E80082FF33
:1038800035C080E00895BC01F2CF809120028823EA
:10389000C9F18530C9F18091E80083FD31C0809184
:1038A000E80082FDEACF8091E80080FFE1CF20911F
:1038B000F3008091F200322F282F6115710519F065
:1038C0002830310558F091E02830310509F090E0BA
:1038D0002091E8002E772093E800CACF8191809351
:1038E000F100615071092F5F3F4FE7CF80912002B7
:1038F000882341F0853041F08091E80083FFBDCFFF
:1039000081E0089582E0089583E00895FC018091AC
:1039100027029091280286179707A0F0611571057C
:1039200029F48091E8008E778093E80090E061159B
:10393000710551F4911108C08091E80082FF36C0F2
:1039400080E00895BC01F2CF809120028823D1F15C
:103950008530D1F18091E80083FD32C08091E8008C
:1039600082FDEACF8091E80080FFE1CF2091F30053
:103970008091F200322F282F6115710519F028303F
:10398000310558F091E02830310509F090E0809140
:10399000E8008E778093E800CACF84918093F1008D
:1039A0003196615071092F5F3F4FE6CF8091200221
:1039B000882341F0853041F08091E80083FFBCCF3F
:1039C00081E0089582E0089583E00895982F97306C
:1039D00028F08F708093E90081E008959093E900CA
:1039E000242F762F50E0981731F07091EC00209141
:1039F000ED005091F00021FD02C09F5FE8CF3091B3
:103A0000EB003E7F3093EB003091ED003D7F309333
:103A1000ED003091EB0031603093EB007093EC00DF
:103A20002093ED005093F0002091EE0027FDE5CFAC
:103A300080E008958091210287FF13C08091E80003
:103A400082FF06C08091E8008B778093E80004C075
:103A5000809120028111F2CF089580912002882365
:103A6000D9F38091E80080FFF8CF8091E8008E774D
:103A7000ECCF2091E4003091E50085E69091EC00D8
:103A800090FF06C09091E80090FF06C080E0089586
:103A90009091E80092FDFACF90912002992391F045
:103AA000953091F09091EB0095FD10C04091E400AD
:103AB0005091E5002417350709F381509A01F1F67A
:103AC00084E0089582E0089583E0089581E00895F8
:103AD0000E94D61D0E94DE1DE0EEF0E08081816034
:103AE0008083E8EDF0E080818F77808319BCA7EDBB
:103AF000B0E08C918E7F8C9380818F7E808310923A
:103B00001F0208950F931F93CF93DF930E94D61D3A
:103B10000E94DE1DC8EDD0E088818F778883888180
:103B20008068888388818F7D888319BC10922002E9
:103B300010921C0210921E0210921D0200EE10E064
:103B4000F80180818B7F808388818160888342E057
:103B500060E080E00E94E61CE1EEF0E080818E7F74
:103B60008083E2EEF0E080818160808380818860E4
:103B70008083F80180818E7F808388818061888343
:103B8000DF91CF911F910F910895E8EDF0E08081D2
:103B90008F7E8083E7EDF0E080818160808384E028
:103BA00082BF81E080931F020C94821DE8EDF0E05B
:103BB00080818E7F80831092E20008951092DA0057
:103BC0001092E10008951F920F920FB60F921124E8
:103BD0002F933F934F935F936F937F938F939F9315
:103BE000AF93BF93EF93FF938091E10082FF0BC0EF
:103BF0008091E20082FF07C08091E1008B7F80937B
:103C0000E1000E9446208091DA0080FF19C0809177
:103C1000D80080FF15C08091DA008E7F8093DA0093
:103C20008091D90080FF94C080E189BD82E189BD87
:103C300009B400FEFDCF81E0809320020E945C1A4F
:103C40008091E10080FF19C08091E20080FF15C0E3
:103C50008091E2008E7F8093E2008091E20080619B
:103C60008093E2008091D80080628093D80019BCD4
:103C700085E0809320020E946E1A8091E10084FF0B
:103C800029C08091E20084FF25C080E189BD82E1E6
:103C900089BD09B400FEFDCF8091D8008F7D80934F
:103CA000D8008091E1008F7E8093E1008091E20056
:103CB0008F7E8093E2008091E20081608093E20039
:103CC00080911C02882309F449C084E0809320027B
:103CD0000E946F1A8091E10083FF29C08091E20069
:103CE00083FF25C08091E100877F8093E10082E01F
:103CF0008093200210921C028091E1008E7F8093BD
:103D0000E1008091E2008E7F8093E2008091E200EA
:103D100080618093E20042E060E080E00E94E61C67
:103D20008091F00088608093F0000E946D1AFF91EE
:103D3000EF91BF91AF919F918F917F916F915F9123
:103D40004F913F912F910F900FBE0F901F9018959C
:103D500019BC109220020E946A1A72CF8091E3006F
:103D600087FD02C081E0B2CF83E0B0CF1F920F92F7
:103D70000FB60F9211242F933F934F935F936F933E
:103D80007F938F939F93AF93BF93CF93EF93FF93C3
:103D9000C091E900CF708091EC001092E900809111
:103DA000F000877F8093F00078940E94F21E1092BA
:103DB000E9008091F00088608093F000C093E900F2
:103DC000FF91EF91CF91BF91AF919F918F917F9193
:103DD0006F915F914F913F912F910F900FBE0F9078
:103DE0001F9018951F93CF93DF93CDB7DEB7AA9797
:103DF0000FB6F894DEBF0FBECDBFE1E2F2E08091D6
:103E0000F100819322E0E932F207C9F70E94851A96
:103E10008091E80083FF42C08091210290912202AC
:103E20009A3008F03BC0E92FF0E0E75EF04E0C94CA
:103E3000A821231F471F4E1F471F4E1FA21FC41F2D
:103E40004E1F19202620803879F0823839F580916C
:103E500025028F708093E9008091EB0085FB882715
:103E600080F91092E90006C080911D0290911E0217
:103E7000911182609091E800977F9093E800809381
:103E8000F1001092F1008091E8008E772DC0282F6C
:103E90002D7F21F48823D1F0823059F18091E80000
:103EA00083FF0AC08091E800877F8093E8008091BB
:103EB000EB0080628093EB00AA960FB6F894DEBF09
:103EC0000FBECDBFDF91CF911F9108958091230246
:103ED000813021F7933009F080E080931E02109228
:103EE000E9008091E800877F8093E8000E941A1D16
:103EF000D5CF809123028111F2CF809125028F705E
:103F000069F28093E9002091EB0020FFE8CF933025
:103F100031F48091EB0080628093EB00E0CF9091D0
:103F2000EB0090619093EB0021E030E001C0220FA4
:103F30008A95EAF72093EA001092EA008091EB005C
:103F40008860EACF8111AACF109123021F77809158
:103F5000E3008078812B8093E3008091E800877FE5
:103F60008093E8000E941A1D8091E80080FFFCCF3A
:103F70008091E30080688093E30083E0111101C029
:103F800082E0809320028ACF8058823008F086CF6A
:103F900080912302909124028C3D23E09207A1F5A9
:103FA00083E08A838AE289834FB7F894DE0113960F
:103FB00020E03EE051E2E32FF0E050935700E4911F
:103FC00020FF03C0E295EF703F5FEF708E2F90E00F
:103FD000EA30C0F0C7968D939D932F5F243159F737
:103FE0004FBF8091E800877F8093E8006AE270E02D
:103FF000CE0101960E94271C8091E8008B77809368
:10400000E8004CCFC096E7CFAE014F5F5F4F6091A5
:1040100025020E946D1BBC01892B09F43FCF9091B2
:10402000E800977F9093E80089819A810E94861C1E
:10403000E3CF803809F032CF8091E800877F80930A
:10404000E80080911C028093F1001DCF811126CFE2
:1040500090912302923008F021CF8091E800877F71
:104060008093E80090931C020E941A1D80911C020C
:10407000882331F084E0809320020E94711A0ECFD1
:104080008091E30087FDF6CF81E0F5CF0895CF93CF
:1040900080912002882399F0C091E900CF7080912F
:1040A000EC0080FD0EC080E0C82B1092E9008091EA
:1040B000E80083FD0E94F21ECF70C093E900CF910B
:1040C000089580E8F1CF0E946A206894B1110C94A1
:1040D000F92008950E94DE2088F09F5798F0B92FAC
:1040E0009927B751B0F0E1F0660F771F881F991F2D
:1040F0001AF0BA95C9F714C0B13091F00E94F820B7
:10410000B1E008950C94F820672F782F8827B85FC6
:1041100039F0B93FCCF3869577956795B395D9F784
:104120003EF490958095709561957F4F8F4F9F4F8E
:104130000895E89409C097FB3EF49095809570959A
:1041400061957F4F8F4F9F4F9923A9F0F92F96E9E3
:10415000BB279395F695879577956795B795F11158
:10416000F8CFFAF4BB0F11F460FF1BC06F5F7F4FF5
:104170008F4F9F4F16C0882311F096E911C0772307
:1041800021F09EE8872F762F05C0662371F096E810
:10419000862F70E060E02AF09A95660F771F881FDF
:1041A000DAF7880F9695879597F9089557FD9058F7
:1041B000440F551F59F05F3F71F04795880F97FBEB
:1041C000991F61F09F3F79F08795089512161306A5
:1041D0001406551FF2CF4695F1DF08C016161706D4
:1041E0001806991FF1CF8695710561050894089509
:1041F000E894BB2766277727CB0197F908950E949B
:1042000012210C9483210E94752138F00E947C2198
:1042100020F0952311F00C946C210C947221112440
:104220000C94F9200E94D62070F3959FC1F3950F4E
:1042300050E0551F629FF001729FBB27F00DB11D2A
:10424000639FAA27F00DB11DAA1F649F6627B00DBA
:10425000A11D661F829F2227B00DA11D621F739FA3
:10426000B00DA11D621F839FA00D611D221F749FB1
:104270003327A00D611D231F849F600D211D822FF8
:10428000762F6A2F11249F5750409AF0F1F088231F
:104290004AF0EE0FFF1FBB1F661F771F881F91504C
:1042A0005040A9F79E3F510580F00C946C210C946E
:1042B000F9205F3FE4F3983ED4F3869577956795B0
:1042C000B795F795E7959F5FC1F7FE2B880F911D76
:1042D0009695879597F9089597F99F6780E870E01C
:1042E00060E008959FEF80EC089500240A9416166C
:1042F000170618060906089500240A9412161306D4
:10430000140605060895092E0394000C11F4882361
:1043100052F0BB0F40F4BF2B11F460FF04C06F5F7D
:104320007F4F8F4F9F4F089597FB072E16F40094F1
:1043300007D077FD09D00E94AE2107FC05D03EF4DE
:10434000909581959F4F0895709561957F4F089541
:10435000EE0FFF1F0590F491E02D0994AA1BBB1BE3
:1043600051E107C0AA1FBB1FA617B70710F0A61B75
:10437000B70B881F991F5A95A9F780959095BC0196
:10438000CD010895F999FECF92BD81BDF89A992784
:1043900080B50895A8E1B0E042E050E00C94EA2135
:1043A000262FF999FECF92BD81BDF89A019700B4EE
:1043B000021639F01FBA20BD0FB6F894FA9AF99A8E
:1043C0000FBE08950196272F0E94D1210C94D02171
:1043D000DC01CB01FC01F999FECF06C0F2BDE1BDC5
:1043E000F89A319600B40D9241505040B8F70895B4
:0443F000F894FFCF6F
:1043F400C6012808140A321E7A190C1AE719B119D1
:104404007D19016697C63435F7F636379690919341
:1044140092404D36391707CA0694065B06EE050727
:0644240006200639060027
:00000001FF
